:020000040800F2
:1000000050040020A1010008B71200088511000863
:10001000B51200080D0200083F170008000000009C
:10002000000000000000000000000000391300087C
:100030000F02000800000000B91200083B1300087E
:10004000BB010008BB010008BB010008BB010008A0
:10005000BB010008BB010008BB010008BB01000890
:10006000BB010008BB010008BB010008BB01000880
:10007000BB010008BB010008BB010008BB01000870
:10008000BB010008BB010008BB010008BB01000860
:10009000BB010008BB010008BB010008BB01000850
:1000A000BB010008BB010008BB010008BB01000840
:1000B000E11300080000000000000000BB01000880
:1000C000BB010008BB010008BB010008BB01000820
:1000D000BB010008BB010008BB010008BB01000810
:1000E000BB010008BB010008000000000000000088
:1000F0000000000000000000000000000000000000
:1001000000000000BB01000800000000BB01000867
:100110000000000000000000BB010008BB01000857
:10012000BB010008BB010008BB010008BB010008BF
:10013000BB010008000000000000000000000000FB
:10014000BB010008BB010008BB0100080000000063
:10015000BB010008BB010008BB010008BB0100088F
:10016000BB010008BB010008BB0100080000000043
:10017000BB010008BB0100080000000000000000F7
:10018000BB010008BB010008BB010008DFF80CD070
:1001900000F02AF8004800478117000850040020AA
:1001A0000648804706480047FEE7FEE7FEE7FEE711
:1001B000FEE7FEE7FEE7FEE7FEE7FEE79D13000829
:1001C0008D010008D2B201E000F8012B491EFBD2DC
:1001D00070470022F6E710B513460A460446194652
:1001E000FFF7F0FF204610BD064C074D06E0E06823
:1001F00040F0010394E8070098471034AC42F6D36E
:10020000FFF7C8FFFC1800081C190008FEE770473C
:100210007047000070B5044600F0E6F80546601C23
:1002200002D004484068044400F0DEF8401BA042BD
:10023000FAD370BD000000202DE9F84FDFF864B15B
:1002400000234FF0010C4FF0030A4FF00F090BF1A0
:10025000040EA0E00CFA03F6324072D04C68022C77
:1002600001D0122C0ED1DC0800EB8408D8F8204015
:100270005D07EF0E09FA07F5AC430D69BD40254354
:10028000C8F8205007685D0091F804800AFA05F468
:1002900008F00308A74308FA05F848EA0708C0F879
:1002A00000804F68012F05D0022F03D0112F01D0FD
:1002B000122F11D18768D1F80C80A74308FA05F8EE
:1002C00048EA0708C0F808804768B7430E79C6F3C4
:1002D00000169E403E434660C668A6438C68AC400C
:1002E0003443C4604C68E40054D52F4C256E45F06F
:1002F00001052566246E23F0030504F00104009433
:100300002A4C2E19B4689D072F0F09FA07F5AC4344
:10031000B0F1904F04D0264DA84203D1012512E040
:10032000002510E0234DA84201D102250BE0224D0B
:10033000A84201D1032506E0204DA84202D10425A0
:1003400001E027E00725BD402543B560DBF800400C
:100350005D464E689443F60300D514432C60DEF8E6
:10036000004075464E689443B60300D514432C6094
:100370000C4D08352C684E689443F60200D51443A2
:100380002C60084D0C352C684E689443B60200D59D
:1003900014432C605B1C0A6832FA03F47FF45AAFF2
:1003A00000F00EB8000401400010024000000140BF
:1003B0000004004800080048000C004800100048F5
:1003C00018BCBDE8E08F0069084000D001207047EC
:1003D00042690A4201D081627047816170470AB167
:1003E00081617047816270470148806870470000F2
:1003F0000000002002488168426811448160704713
:100400000000002010B50024032000F071F8002047
:1004100000F008F808B1012401E000F025F82046BA
:1004200010BD000070B50E4E05460024706898B1EE
:100430004FF47A71B1FBF0F00A490968B1FBF0F0B2
:1004400000F018FC40B9102D06D200222946501E9B
:1004500000F02EF8356000E00124204670BD000059
:10046000000000200C000020094808B5016E41F092
:1004700001010166016E01F001010091816D41F001
:1004800080518165806D00F08050009008BD0000B3
:1004900000100240002809DB00F01F0201219140FA
:1004A0004009800000F1E020C0F800117047000012
:1004B000F0B40E4B1B680C46C3F30223C3F10705CF
:1004C000042D00D90425191D072901D2002300E0BD
:1004D000DB1E012606FA05F1491E214099409E4087
:1004E000761E16403143F0BC01F02AB90CED00E055
:1004F000064900F0070208684FF6FF03184040EA7B
:100500000220034A10430860704700000CED00E031
:100510000000FA051649B0F5007F0868C0F34120D5
:1005200009D0022805D0086820F4C06040F480603B
:100530000860002070470128FBD0086820F4C060E4
:1005400040F4007008600B483222006850430A4AA9
:10055000B0FBF2F0401C00E0401E4A69520501D594
:100560000028F9D148694005E3D503207047000011
:10057000007000400C00002040420F00024800685C
:1005800000F4C06070470000007000402DE9F047A3
:100590000F46050058D0404E306800F00700B842C2
:1005A00009D2306820F0070038433060306800F02E
:1005B0000700B84248D12878384CC0072CD068686A
:1005C000032811D0022812D0216898B149050029CA
:1005D0003ADAA16821F003010143A160FFF704FFAB
:1005E000804641F2883910E021688901EFE72168EF
:1005F0008903ECE78907EAE7FFF7F6FEA0EB0801BD
:10060000494502D90320BDE8F087A068696800F079
:100610000C00B0EB810FEFD12878800705D5A068DA
:10062000A96820F0F0000843A060306800F00700DF
:10063000B8420BD9306820F007003843306030688A
:1006400000F00700B84201D00120DCE7287840071D
:1006500005D5A068E96820F4E0600843A060287828
:10066000000706D5A068296920F4605040EAC1005F
:10067000A06000F01BF8A168094AC1F30311515CA6
:1006800001F01F01C8400749086007480068BDE83D
:10069000F047FFF7C7BE00000020024000100240F4
:1006A000BC1800080C0000200000002070B525498F
:1006B000002318468A68CC6812F00C0204F0030686
:1006C000214C4FEA640509D00C2A05D0042A32D007
:1006D000082A00D1284670BD012E10D10B681B07D7
:1006E00004D4D1F89430C3F3032302E00B68C3F3BE
:1006F0000313164E56F82330DAB10C2AEBD1C86832
:1007000000F00300022818D0032818D01846CA6841
:10071000CB68C2F30212C3F306234343521CB3FB5C
:10072000F2F2C868C0F34160401C4000B2FBF0F038
:1007300070BD184670BD204670BD2046E7E72846CC
:10074000E5E70000001002400024F400CC18000887
:100750002DE9F84304006ED0FD4DA86800F00C06AA
:10076000E86800F003072078C00663D576B10C2E48
:1007700001D1012F0AD0A0690028286878D040F064
:1007800001002860FFF730FE80465BE028688007A4
:1007900002D5A0690028DED0216A2868000703D5A9
:1007A000286800F0F00004E0D5F89400F02202EA96
:1007B0001010814216D9084600F080FD00283AD179
:1007C000286840F0080028602868216A20F0F000BE
:1007D000084328606868E16920F47F4040EA01200E
:1007E000686015E0286840F0080028602868216AE1
:1007F00020F0F000084328606868E16920F47F4039
:1008000040EA01206860206A00F058FD0028D6D137
:10081000FFF74CFFA968CF4AC1F30311515C01F007
:100820001F01C840CC490860CC480068FFF7FAFDBA
:1008300000287DD12DE0C9E0FFF7D6FDA0EB080030
:10084000022876D828688007F6D5286840F0080086
:1008500028602868216A20F0F00008432860686852
:10086000E16920F47F4040EA0120686011E0FFE781
:1008700020F001002860FFF7B7FD804606E000BFCA
:10088000FFF7B2FDA0EB08000228DAD8286880073D
:10089000F6D42078C00740D0082E18D00C2E01D1F5
:1008A000032F14D06068B0F5803F17D0B0F5A02FAB
:1008B000286817D020F480302860286820F4802031
:1008C00028606068E0B1FFF78FFD804614E028687B
:1008D000800322D56068002878D01EE0286840F4A4
:1008E0008030EDE740F480202860F7E7FFF77CFDDB
:1008F000A0EB08006428A4D828688003F6D50CE093
:10090000FFF772FD804605E0FFF76EFDA0EB0800E3
:10091000642896D828688003F6D4207880073BD5D1
:10092000042E11D00C2E01D1022F0DD0E06801E071
:1009300064E1B8E0002828681ED040F48070286088
:10094000FFF752FD07460CE0286840050CD5E0682B
:100950000028C1D008E000BFFFF746FDC01B0228F9
:1009600093D828684005F7D56868217C20F0F850B6
:1009700040EA016068600FE020F480702860FFF7B3
:1009800033FD074605E000BFFFF72EFDC01B022820
:10099000B1D828684005F7D42078000729D56069C8
:1009A0000028D5F8940012D040F00100C5F894005A
:1009B000FFF71AFD074604E0FFF716FDC01B0228EB
:1009C00071D8D5F894008007F6D512E04CE120F0FC
:1009D0000100C5F89400FFF707FD074605E000BFDA
:1009E000FFF702FDC01B02285DD8D5F894008007F0
:1009F000F6D42078400766D5A86D0027C00008D43B
:100A0000A86D40F08050A865A86D012700F08050C7
:100A1000009053480168C90512D40168814641F429
:100A200080710160FFF7E0FC804605E0FFF7DCFC29
:100A3000A0EB0800022836D8D9F80000C005F5D58B
:100A4000A068012816D00528D5F8900017D020F00E
:100A50000100C5F89000D5F8900020F0040000BF18
:100A6000C5F89000A06841F28839C0B1FFF7BCFC1E
:100A700080460FE0D5F8900040F00100F0E740F02C
:100A80000400C5F89000F5E7FFF7AEFCA0EB080105
:100A9000494508D8D5F890008007F5D50EE0FFF756
:100AA000A3FC804606E07CE0FFF79EFCA0EB08017B
:100AB000494576D8D5F890008007F5D41FB1A86DC8
:100AC00020F08050A8652078800628D5606A00282C
:100AD000D5F8980012D040F00100C5F89800FFF753
:100AE00083FC074605E000BFFFF77EFCC01B022821
:100AF00057D8D5F898008007F6D510E020F001000F
:100B0000C5F89800FFF770FC074604E0FFF76CFC9F
:100B1000C01B022871D8D5F898008007F6D4A06AC7
:100B2000F0B30C2E71D00228286820F08070286065
:100B30001AD02868000103D4E86820F00300E860B8
:100B4000E86808490840E860FFF74EFC044657E0B3
:100B500000100240BC1800080C000020000000201B
:100B600000700040FFFFEEFEFFF73EFC064604E08B
:100B7000FFF73AFC801B02283FD828688001F7D491
:100B8000F4E90B016FF00F0202EB01110843218A17
:100B90004908520402EB4151A26841EA022101E0F6
:100BA00064E02AE00843217D4FF07E42490802EBD1
:100BB00041610843217B40EAC160E9682C4A114049
:100BC0000843E860286840F080702860E86840F0DA
:100BD0008070E860FFF708FC044604E0FFF704FCBF
:100BE000001B022809D828688001F7D53EE000BF25
:100BF000FFF7FAFB001B022802D90320BDE8F883A7
:100C000028688001F4D431E0FFE70128F6D0E868D5
:100C1000E26A00F00301914226D1216B00F07002DC
:100C20000901103991421FD1626B00F4FE41B1EB12
:100C3000022F19D194F8382000F07841B1EBC26F3F
:100C400012D1A18F00F4C00249084905A1F5001195
:100C5000914209D194F8401000F0C060490849065B
:100C6000A1F10071814201D00120C7E70020C5E752
:100C70008C809D0110B5401EB0F1807F01D3012012
:100C800010BD4FF0E02460610F21601700F058FDA7
:100C90000020A06107202061002010BD7047704730
:100CA0007047000070B590F83C20012A21D0012443
:100CB00080F83C40022280F83D2003685A689D6815
:100CC0000D4EB34203D122F470064A68324322F03B
:100CD00070060A688968324325F0800529435A6006
:100CE0000268916080F83D40002180F83C10084681
:100CF00070BD022070BD0000002C014010B5040042
:100D000003D094F83D0010B107E0012010BD002091
:100D100084F83C00204600F00DF8022084F83D00E5
:100D2000211D206800F062FB012084F83D000020B6
:100D300010BD000008B50068B0F1804F12D10A481C
:100D4000816D41F001018165806D002200F001009C
:100D5000009011461C20FFF7ABFBBDE808401C20AB
:100D6000FFF798BB08BD00000010024070B50446B4
:100D700090F83C00012817D0012584F83C5002204F
:100D800084F83D00226890682E4B184020F47F4084
:100D900090600868502830D00DDC20284DD005DC4C
:100DA00098B310283BD148E0022070BD302844D0D1
:100DB000402834D139E0602828D0702806D0B0F51A
:100DC000805F2CD0B0F5005F29D10AE0CB68D1E973
:100DD0000121206800F040FB2068816841F0770124
:100DE00009E0CB68D1E90121206800F035FB2068DB
:100DF000816841F48041816011E0CA6849682068D7
:100E000000F07AFC5021206807E016E0CA684968C3
:100E1000206800F082FC6021206800F027FB84F845
:100E20003D50002084F83C0070BDCA6849682068C5
:100E300000F062FC40212068EFE72268014610467E
:100E4000EBE7000088FFFEFF704770B504460068BE
:100E500001694FF00005C943890715D4C168C9432A
:100E6000890711D4E91E016101202077206880697B
:100E70008007204602D0FFF7E7FF04E000F0CEF83D
:100E8000204600F07CF9257720680169C9434907AD
:100E900017D4C168C943490713D46FF00401016135
:100EA000022020772068806910F4407F204602D01D
:100EB000FFF7CAFF04E000F0B1F8204600F05FF948
:100EC000257720680169C943090716D4C168C94359
:100ED000090712D46FF0080101610420207720680F
:100EE000C0698007204602D0FFF7AEFF04E000F0A3
:100EF00095F8204600F043F9257720680169C94339
:100F0000C90617D4C168C943C90613D46FF01001CC
:100F10000161082020772068C06910F4407F2046D6
:100F200002D0FFF791FF04E000F078F8204600F0CF
:100F300026F9257720680169C943C90708D1C16826
:100F4000C943C90704D1891E0161204600F018F980
:100F500020680169C943090609D4C168C943090663
:100F600005D46FF0800101612046FFF798FE2068EC
:100F70000169C943C90509D4C168C943090605D433
:100F80006FF4807101612046FFF788FE20680169D7
:100F9000C943490609D4C168C943490605D46FF05D
:100FA00040010161204600F0ECF820680169C94366
:100FB00089060BD4C168C943890607D46FF02001A4
:100FC00001612046BDE87040FFF76ABE70BD0000B9
:100FD00010B586B0044614216846FFF7FAF8206879
:100FE000B0F1804F16D10C48C16C41F00101C164D1
:100FF000C06C694600F0010005902020009002209E
:101000000190002002900390012004904FF0904046
:10101000FFF712F906B010BD00100240704770B51E
:10102000044690F83C000D4601280ED0012684F8B5
:101030003C60022084F83D000C2A45D007DC5AB100
:10104000042A1BD0082A78D12CE0022070BD102A77
:101050004ED0142A71D15DE0206800F00FFA2068AC
:10106000816941F0080181612068816921F00401F2
:101070008161206881692A69114311E0206800F0CC
:1010800039FA2068816941F40061816120688169D1
:1010900021F480618161206881692A6941EA022125
:1010A00081614AE0206800F061FA2068C16941F07E
:1010B0000801C1612068C16921F00401C161206893
:1010C000C1692A69114311E0206800F089FA20689B
:1010D000C16941F40061C1612068C16921F4806186
:1010E000C1612068C1692A6941EA0221C16124E025
:1010F000206800F0A5FA2068416D41F008014165C3
:101100002068416D21F0040141652068416D2A6924
:10111000114311E0206800F0C1FA2068416D41F4EC
:10112000006141652068416D21F48061416520685E
:10113000416D2A6941EA0221416584F83D60002041
:1011400084F83C0070BD10B5040003D094F83D0055
:1011500010B107E0012010BD002084F83C002046BB
:1011600000F00CF8022084F83D00211D206800F0FA
:101170003DF9012084F83D00002010BD7047704704
:1011800070477047FEE7000070B586B014216846CE
:10119000FFF71FF81D48C16C41F00401C164C16C28
:1011A00001F004010591C16C41F08001C164C16C82
:1011B00001F080010591C16C41F00101C164C16C75
:1011C00001F001010591C16C41F00201C164C06CE4
:1011D0000F4E00F002004FF400540590002221460B
:1011E0003046FFF7FCF80125CDE9004500240294C4
:1011F000694630460394FFF71FF80C208DE8310054
:1012000069460448FFF718F806B070BD00100240A8
:10121000000800480004004810B58EB00024079470
:10122000089409940A940B940C941C2168460D941C
:10123000FEF7CFFF1E484FF0804101602721C0E933
:10124000011440F2E731C0E903148461FFF756FD51
:1012500008B1FEF7DDFF4FF48050079007A914484E
:10126000FFF784FD08B1FEF7D3FF1148FFF76BFFCE
:1012700008B1FEF7CDFF0B940BA90D480D94FFF7B5
:1012800011FD08B1FEF7C4FF602000904FF4FA7022
:10129000CDE901040022694605480494FFF7BFFE2A
:1012A00008B1FEF7B5FF0248FFF792FE0EB010BD81
:1012B00010000020FEE7704770470000F8B51C4D95
:1012C00006460024A86DC00002D5FFF757F90DE0CF
:1012D000A86D40F08050A865A86D00F08050009087
:1012E000FFF74CF9A96D21F08051A965B0F5007F99
:1012F00004D0802E07D94FF003040AE0802E08D9CD
:10130000A02E01D804E001D1022402E0702E00D109
:1013100001240848016821F00701214301600068A9
:1013200000F00700A04201D00120F8BD0020F8BD68
:1013300000100240002002407047FFF75BB810B574
:1013400096B044216846FEF744FF142111A8FEF729
:1013500040FF01200104CDE90001022103240A918C
:10136000CDE90B4028200D900720CDE90E01082083
:1013700010906846FFF7ECF90F20CDE9110400202A
:10138000139014901590022111A8FFF7FFF84FF465
:101390000070FFF7BFF816B010BD00000D480168DF
:1013A00041F4700101600C48016841F001010160E5
:1013B000002181600268094B1A4002608214C260F9
:1013C000026822F48022026081610249C0038039F0
:1013D0000860704788ED00E000100240FFFFF6EA69
:1013E0000148FFF732BD00001000002070B5026810
:1013F000164B4FF08046984201D0B04203D122F004
:1014000070044A682243124C124D984205D0B042F3
:1014100003D0A04201D0A84203D122F44076CA688A
:1014200032434E6922F08002324302608A68C2620F
:101430000A688262984203D0A04201D0A84201D13A
:10144000096901630121416170BD0000002C014068
:10145000004001400044014010B5846842EA032284
:1014600024F47F440A432243826010BD826822F044
:1014700070020A4342F0070181607047F0B5026ACA
:1014800022F001020262056A43688269154C25F068
:10149000020522400C6822F0030214438A68134EAE
:1014A0002A43114D124FA84203D0B04201D0B84296
:1014B00006D122F0080CCA6842EA0C0222F00402AB
:1014C000A84203D0B04201D0B84205D14D6923F4FF
:1014D00040731D438B692B434360846149684163BA
:1014E0000262F0BD8FFFFEFF002C01400040014072
:1014F0000044014030B5026A22F010020262046A20
:1015000042688369154D2B400D6823F4407343EA0C
:10151000052524F020038C6843EA0413104CA042F4
:1015200007D1CC6823F0800343EA041323F040037F
:1015300005E00C4CA04202D00B4CA04207D14C69F4
:1015400022F4406242EA84028C6942EA84024260E8
:10155000856149688163036230BD0000FF8FFFFE33
:10156000002C0140004001400044014030B5026AB7
:1015700022F480720262046A4268C369144D2B40EF
:101580000D6823F003031D4324F400738C6843EAC1
:101590000423104CA04207D1CC6823F4006343EA33
:1015A000042323F4806305E00B4CA04202D00B4CD3
:1015B000A04207D14C6922F4405242EA04128C69DD
:1015C00042EA04124260C5614968C163036230BDEA
:1015D0008FFFFEFF002C014000400140004401400D
:1015E00030B5026A22F480520262046A4268C3691A
:1015F0000F4D24F400542B400D6823F4407343EA4C
:1016000005238D6844EA05340A4DA84205D00A4DE9
:10161000A84202D0094DA84204D14D6922F480426B
:1016200042EA85124260C36149680164046230BDC8
:10163000FF8FFFFE002C01400040014000440140AC
:1016400030B5026A22F480320262046A4268436D55
:101650000E4D2B400D681D4324F400330C8943EAE2
:1016600004430B4CA04205D00A4CA04202D00A4CC5
:10167000A04204D14C6922F4803242EA0422426042
:10168000456549688165036230BD00008FFFFEFF3C
:10169000002C0140004001400044014030B5026A86
:1016A00022F480120262046A4268436D0E4D24F4F3
:1016B00000142B400D6843EA05230D8944EA0554C4
:1016C0000A4DA84205D00A4DA84202D0094DA842B1
:1016D00004D14D6922F4802242EA852242604365AA
:1016E0004968C165046230BDFF8FFFFE002C0140D8
:1016F000004001400044014010B5036A046A24F030
:1017000001040462846924F0F00444EA021423F022
:101710000A020A438461026210BD10B5036A23F015
:10172000100303628369046A23F4704343EA0232BC
:1017300024F0A00343EA01118261016210BDFEE7BB
:101740000907090E002804DB00F1E02080F80014EE
:10175000704700F00F0000F1E02080F8141D704782
:1017600002E008C8121F08C1002AFAD1704770476A
:10177000002001E001C1121F002AFBD170470000C8
:1017800046F2A817FEF73EFEFFF7D9FDFFF7FCFC77
:10179000FFF742FDDFF81C91474E4FF4005540F62D
:1017A000C41A012229463046FEF719FE04214C4690
:1017B0004846FEF708FE0028F3D10A20FEF72AFD6E
:1017C00004212046FEF7FFFD0028EAD14FF4FA7805
:1017D00029463046FEF7FCFD4046FEF71BFD08217A
:1017E0002046FEF7F0FD0028F2D1012229463046BE
:1017F000FEF7F5FD012229463046FEF7F0FD0821EF
:101800002046FEF7E0FD0028CBD10A20FEF702FDBE
:101810000821A0462046FEF7D6FD0028C1D10024AD
:1018200029463046FEF7D4FD604200EB800007EB0E
:101830004000401EFDD229463046FEF7C9FD04EBAC
:1018400084004000401EFDD204214046FEF7BBFD4F
:1018500020B354451EDB002429463046FEF7B8FD70
:1018600004EB84004000401EFDD229463046FEF7BE
:10187000AFFD604200EB800007EB4000401EFDD250
:1018800004214046FEF79FFD70B15445C7DA641C41
:10189000BC42E1DB641CBC42C2DB82E70122294678
:1018A0003046FEF79CFD7CE7012229463046FEF7D4
:1018B00096FDEFE700040048000800480000000023
:1018C000000000000102030406070809A0860100C9
:1018D000400D0300801A060000350C0040420F0046
:1018E00080841E0000093D0000127A000024F400EC
:1018F00000366E010048E801006CDC021C1900088B
:101900000000002010000000601700082C190008DB
:1019100010000020400400007017000810000000B4
:0C192000010000000000000000093D0074
:040000050800018D61
:00000001FF
