:020000040800F2
:10000000F8080020A10100083F1F0008FB110008AC
:100010003D1F00083B0400084922000800000000C2
:10002000000000000000000000000000A521000802
:100030003D04000800000000411F0008A72100083F
:10004000BB010008BB010008BB010008BB010008A0
:10005000BB010008BB010008BB010008BB01000890
:10006000BB010008BB010008BB010008BB01000880
:10007000BB010008BB010008BB010008BB01000870
:10008000BB010008BB010008BB010008BB01000860
:10009000BB010008BB010008BB010008BB01000850
:1000A000BB010008BB010008BB010008BB01000840
:1000B000BB0100080000000000000000BB010008B8
:1000C000BB010008BB010008BB010008BB01000820
:1000D000BB010008BB010008BB010008BB01000810
:1000E000BB010008BB010008000000000000000088
:1000F0000000000000000000000000000000000000
:1001000000000000BB01000800000000BB01000867
:100110000000000000000000BB010008BB01000857
:10012000BB010008BB010008BB010008BB010008BF
:10013000BB010008000000000000000000000000FB
:10014000BB010008BB010008BB0100080000000063
:10015000BB010008BB010008BB010008BB0100088F
:10016000BB010008BB010008BB0100080000000043
:10017000BB010008BB0100080000000000000000F7
:10018000BB010008BB010008BB010008DFF80CD070
:1001900000F032F90048004789220008F8080020E2
:1001A0000648804706480047FEE7FEE7FEE7FEE711
:1001B000FEE7FEE7FEE7FEE7FEE7FEE705220008B2
:1001C0008D010008D2B201E000F8012B491EFBD2DC
:1001D00070470022F6E710B513460A460446194652
:1001E000FFF7F0FF204610BD2DE9FE4F81EA030422
:1001F00004F0004421F0004100944FF0000B23F084
:10020000004350EA01045ED052EA03045BD0C3F31A
:100210000A54C1F30A552C44A4F2F3340194A0FB10
:100220000254C1F3130141F48011C3F3130343F4E7
:10023000801301FB024400FB034E840A970A44EA40
:10024000815447EA8357A4FB076802958D0A05FB92
:1002500007854FEA932C04FB0C542705029D4FEAB7
:10026000065847EA1637B5EB08056EEB070C870E04
:10027000920E47EA811742EA8312A7FB0201B6EB0E
:100280000B0164EB00042B0D43EA0C335E1844EBC6
:100290001C50DA465146E7FB0201C5F313044FEA4E
:1002A0000B3343EA14534FEA0432019C43EA06033A
:1002B000A4F10C040294009CCDE900B400F04EF8C7
:1002C00003B000F003B800200146F9E730BCBDE8F8
:1002D000C08F0EB540F2334102910021CDE90011EB
:1002E0000A460B4600F03AF803B000BDC1F30A52CB
:1002F00010B5C1F3130140F2FF3341F480119A426B
:1003000001DA002010BD40F233439A42A2F2334298
:1003100003DC524200F003F810BD904010BD202ACB
:1003200004DB203A21FA02F00021704721FA02F39F
:10033000D040C2F12002914008431946704710B5E1
:10034000141E73F1000408DA401C41F100019218F8
:100350005B411A4301D120F0010010BD2DE9F04DA1
:1003600092469B4611B1B1FA81F202E0B0FA80F2F6
:100370002032904600F052F804460F4640EA0A0048
:1003800041EA0B0153465A46084313D0114653EA3B
:10039000010019D0C8F140025046FFF7C0FF0546E2
:1003A0000E4650465946424600F038F8084305D0FC
:1003B000012004E020463946BDE8F08D00200543C9
:1003C00046EAE0762C4337430A986305E40AA0EB3B
:1003D00008000022FD0A44EA47540A3002D50020F2
:1003E0000146E9E7010510196941DDE908450019F1
:1003F0006941BDE8F04DA2E7064C074D06E0E06814
:1004000040F0010394E8070098471034AC42F6D35B
:10041000FFF7C0FEC48E0008E48E0008202A04DB2B
:10042000203A00FA02F1002070479140C2F1200307
:1004300020FA03F3194390407047FEE77047704776
:1004400070B5044600F0F2F80546601C02D004487E
:100450000078044400F0EAF8401BA042FAD370BDD3
:10046000000000202DE9FC4FDFF894A100230125B6
:100470000AF1040B03244FF00F0C0BF1040EB8E04B
:1004800005FA03F632406FD04F68012F05D0022FD6
:1004900003D0112F01D0122F17D1D0F808905F0090
:1004A00004FA07F829EA08090097D1F80C8008FA3D
:1004B00007F848EA0908C0F808804768B7430E798A
:1004C000C6F300169E403E434660C6684FEA4308A6
:1004D00004FA08F7BE4301978F6807FA08F7374315
:1004E000C7604E68022E01D0122E13D1DE0800EB39
:1004F00086060096366A5F07FF0E0CFA07F926EAB1
:100500000906D1F8109009FA07F949EA0609009E90
:10051000C6F820900668019FBE430F7907F00307D5
:1005200007FA08F7374307604E68F60060D5354E86
:10053000376E47F001073766366E23F0030706F083
:1005400001060096304E3E44B146B6689F074FEA1A
:1005500017780CFA08F7BE43B0F1904F05D02B4F37
:10056000B84204D1012712E042E000270FE0284FF3
:10057000B84201D102270AE0264FB84201D1032731
:1005800005E0254FB84201D1042700E0072707FA0C
:1005900008F73743C9F80870DAF800605746D1F811
:1005A000048096435FEAC83800D516433E60DBF806
:1005B00000605F46D1F8048096435FEA883800D532
:1005C00016433E60DEF800607746D1F8048096431B
:1005D0005FEAC82800D516433E60094F0C373E68D5
:1005E000D1F8048096435FEA882800D516433E6020
:1005F0005B1C0A6832FA03F67FF442AF00F00EB8D3
:1006000000040140001002400000014000040048C6
:1006100000080048000C0048001000481CBCBDE861
:10062000E08F0AB18161704781627047014880683C
:1006300070470000000000200248816802781144E1
:10064000816070470000002010B50024032000F0F6
:1006500063F8002000F008F808B1012401E000F080
:1006600025F8204610BD000070B50E4E054600244A
:10067000307898B14FF47A71B1FBF0F00A4909680B
:10068000B1FBF0F000F0A5FD40B9102D06D200221C
:100690002946501E00F020F8756000E00124204635
:1006A00070BD0000000000200C000020094808B5C3
:1006B000016E41F001010166016E01F0010100913E
:1006C000816D41F080518165806D00F08050009017
:1006D00008BD000000100240F0B40E4B1B680C4631
:1006E000C3F30223C3F10705042D00D90425191D06
:1006F000072901D2002300E0DB1E012606FA05F1DE
:10070000491E214099409E40761E16403143F0BC60
:1007100001F09BBD0CED00E0064900F007020868FF
:100720004FF6FF03184040EA0220034A10430860D6
:10073000704700000CED00E00000FA051649B0F526
:10074000007F0868C0F3412009D0022805D008685E
:1007500020F4C06040F480600860002070470128E9
:10076000FBD0086820F4C06040F4007008600B48BB
:100770003222006850430A4AB0FBF2F0401C00E00D
:10078000401E4A69520501D50028F9D14869400543
:10079000E3D5032070470000007000400C000020EB
:1007A00040420F000248006800F4C060704700003B
:1007B000007000402DE9F0470F46050058D0404E2C
:1007C000306800F00700B84209D2306820F0070016
:1007D00038433060306800F00700B84248D12878CC
:1007E000384CC0072CD06868032811D0022812D0DA
:1007F000216898B1490500293ADAA16821F003017E
:100800000143A160FFF712FF804641F2883910E0F2
:1008100021688901EFE721688903ECE78907EAE7A6
:10082000FFF704FFA0EB0801494502D90320BDE80A
:10083000F087A068696800F00C00B0EB810FEFD181
:100840002878800705D5A068A96820F0F000084343
:10085000A060306800F00700B8420BD9306820F083
:10086000070038433060306800F00700B84201D01C
:100870000120DCE72878400705D5A068E96820F466
:10088000E0600843A0602878000706D5A0682969C1
:1008900020F4605040EAC100A06000F01BF8A1689D
:1008A000094AC1F30311515C01F01F01C840074917
:1008B000086007480068BDE8F047FFF7D5BE0000B4
:1008C0000020024000100240102300080C0000200D
:1008D0000400002070B52549002318468A68CC68BA
:1008E00012F00C0204F00306214C4FEA640509D013
:1008F0000C2A05D0042A32D0082A00D1284670BD1F
:10090000012E10D10B681B0704D4D1F89430C3F327
:10091000032302E00B68C3F30313164E56F823308B
:10092000DAB10C2AEBD1C86800F00300022818D015
:10093000032818D01846CA68CB68C2F30212C3F362
:1009400006234343521CB3FBF2F2C868C0F3416074
:10095000401C4000B2FBF0F070BD184670BD204650
:1009600070BD2046E7E72846E5E70000001002409A
:100970000024F400202300082DE9F84304006FD080
:10098000FE4DA86800F00C06E86800F00307207828
:10099000C00664D576B10C2E01D1012F0AD0A06912
:1009A000002828687AD040F001002860FFF73EFE5A
:1009B00080465DE02868800702D5A0690028DED067
:1009C000216A2868000703D5286800F0F00004E0D9
:1009D000D5F89400F02202EA1010814216D9084698
:1009E00001F0B0FA00283BD1286840F008002860E8
:1009F0002868216A20F0F000084328606868E169EF
:100A000020F47F4040EA0120686016E0286840F04A
:100A1000080028602868216A20F0F0000843286058
:100A20006868E16920F47F4040EA0120686026B9E7
:100A3000206A01F087FA0028D5D1FFF74BFFA9689B
:100A4000CF4AC1F30311515C01F01F01C840CD49E9
:100A50000860CD480068FFF707FE00287ED12EE031
:100A6000CAE000BFFFF7E2FDA0EB0800022876D83D
:100A700028688007F6D5286840F0080028602868B4
:100A8000216A20F0F000084328606868E16920F4DA
:100A90007F4040EA0120686011E0FFE720F001009C
:100AA0002860FFF7C3FD804606E000BFFFF7BEFDEC
:100AB000A0EB08000228DAD828688007F6D420784E
:100AC000C00740D0082E18D00C2E01D1032F14D00F
:100AD0006068B0F5803F17D0B0F5A02F286817D018
:100AE00020F480302860286820F480202860606826
:100AF000E0B1FFF79BFD804614E02868800322D513
:100B00006068002878D01EE0286840F48030EDE767
:100B100040F480202860F7E7FFF788FDA0EB08008D
:100B20006428A4D828688003F6D50CE0FFF77EFD82
:100B3000804605E0FFF77AFDA0EB0800642896D810
:100B400028688003F6D4207880073BD5042E11D086
:100B50000C2E01D1022F0DD0E06801E0B6E1FFE0DC
:100B6000002828681ED040F480702860FFF75EFDE2
:100B700007460CE0286840050CD5E0680028C1D085
:100B800008E000BFFFF752FDC01B022893D8286879
:100B90004005F7D56868217C20F0FE4040EA0160FE
:100BA00068600FE020F480702860FFF73FFD074683
:100BB00005E000BFFFF73AFDC01B0228B1D8286846
:100BC0004005F7D42078000729D560690028D5F8BA
:100BD000940012D040F00100C5F89400FFF726FD04
:100BE000074604E0FFF722FDC01B022899D8D5F87C
:100BF00094008007F6D512E02BE120F00100C5F843
:100C00009400FFF713FD074605E000BFFFF70EFD58
:100C1000C01B022885D8D5F894008007F6D4207828
:100C2000400766D5A86D0027C00008D4A86D40F025
:100C30008050A865A86D012700F0805000905348AF
:100C40000168C90512D40168814641F480710160D0
:100C5000FFF7ECFC804605E0FFF7E8FCA0EB08009E
:100C600002287DD8D9F80000C005F5D5A068012874
:100C700016D00528D5F8900017D020F00100C5F84F
:100C80009000D5F8900020F0040000BFC5F8900057
:100C9000A06841F28839C0B1FFF7C8FC80460FE078
:100CA000D5F8900040F00100F0E740F00400C5F8EE
:100CB0009000F5E7FFF7BAFCA0EB080149454FD8D3
:100CC000D5F890008007F5D50EE0FFF7AFFC804621
:100CD00006E000BFFFF7AAFCA0EB080149453FD89A
:100CE000D5F890008007F5D41FB1A86D20F0805092
:100CF000A8652078800628D5606A0028D5F8980075
:100D000012D040F00100C5F89800FFF78FFC0746AD
:100D100005E000BFFFF78AFCC01B022820D8D5F8E9
:100D200098008007F6D510E020F00100C5F8980083
:100D3000FFF77CFC074604E0FFF778FCC01B0228A5
:100D40000ED8D5F898008007F6D4A06AA8B102287A
:100D500024D00C2E7DD0286820F08070286000E020
:100D6000B3E02868000103D4E86820F00300E860DD
:100D7000E86807490840E8600CE09FE00010024086
:100D8000102300080C000020040000200070004028
:100D9000FFFFEEFEFFF74AFC044699E0E868E26ACE
:100DA00000F00301914226D1216B00F0700209018D
:100DB000103991421FD1626B00F4FE41B1EB022F5A
:100DC00019D194F8382000F07841B1EBC26F12D1FC
:100DD000A18F00F4C00249084905A1F50011914214
:100DE00009D194F8401000F0C06049084906A1F10B
:100DF000007181424BD00C2E6FD0286840016CD41A
:100E0000286820F080702860FFF710FC064604E098
:100E1000FFF70CFC801B022857D828688001F7D404
:100E2000F4E90B016FF00F0202EB01110843218A74
:100E30005204490802EB4151A26841EA02210843E9
:100E4000217D4FF07E42490802EB41610843217B3E
:100E500000E042E040EAC160E968214A11400843ED
:100E6000E860286840F080702860E86840F0807092
:100E7000E860FFF7DBFB044605E000BFFFF7D6FBA9
:100E8000001B022821D828688001F7D523E02868B4
:100E9000800120D4286840F080702860E86840F025
:100EA0008070E860FFF7C2FB044604E0FFF7BEFB7A
:100EB000001B022809D828688001F7D50BE000BF85
:100EC000FFF7B4FB001B022802D90320BDE8F8831A
:100ED00028688001F4D40020F8E70120F6E700003C
:100EE0008C809D0170B5040009D0606A002540B176
:100EF00025616561A56294F85D0040B10CE00120B8
:100F000070BD6068B0F5827FF4D0E561F2E784F8E7
:100F10005C50204600F056F8022084F85D002068FE
:100F2000016821F040010160E1684FF4E062914204
:100F300001D9002001E04FF48050B1F5706F02D06C
:100F4000914200D0A562A188228901F4827102F445
:100F500004421143227C02F002021143227D02F07E
:100F600001021143228B02F400721143227F02F02E
:100F70003802114394F8202002F080021143228DA0
:100F800002F40052114322681160A169042202EAAE
:100F9000114194F8242000F4805002F01002114313
:100FA00094F8342002F008021143A28902F470621E
:100FB00011430143206841602566012084F85D00EB
:100FC000002070BDF0B587B0044614216846FFF7D5
:100FD00000F91849206888422AD11748816D41F4E8
:100FE00080418165816D01F480410591C16C41F0C2
:100FF0000401C164C16C01F004010591C16C41F0B0
:101000000201C164C06C022400F0020005900820B7
:101010000025032605278DE8F10069460748FFF7FC
:1010200021FA20038DE8F10069460548FFF71AFA16
:1010300007B0F0BD00380040001002400008004832
:10104000000400482DE9F84F044690F85C000027A2
:101050001D461646894601280DD04FF0010B84F835
:101060005CB0FFF7E3FA804694F85D00BA460128C9
:1010700004D00227A4E0022000F0A8B8B9F1000FC4
:1010800074D0002E72D0032084F85D00C4F860A0F4
:10109000C4F83890A687E687C4F840A0A4F844A016
:1010A000A4F846A0C4F850A0C4F84CA0A068B0F5BD
:1010B000004F09D12068016821F0400101602068DB
:1010C000016841F48041016020680168490603D449
:1010D000016841F040010160E068B0F5E06F6068D0
:1010E00023D908B1012E1CD1A06B21680088C860EB
:1010F00006E020688168890709D5A16B0988C1606D
:10110000A06B801CA063E08F401EE08709E0FFF722
:101110008DFAA0EB0800A84202D3681C01D046E07B
:10112000ADB3E08F0028E4D136E008B1012E30D114
:10113000E08F0128A06B03D921680088C8600FE008
:1011400021680078087314E0E08722E02068816855
:10115000890714D5E18F0129A16B08D90988C160DD
:10116000A06B801CA063E08F801EEDE727E009786C
:101170000173A06B401CA063E08F401EE4E7FFF703
:1011800055FAA0EB0800A84202D3681C01D00EE07B
:101190006DB1E08F0028D9D142462946204600F0A3
:1011A00019FF08B120202066A06810B105E00327D0
:1011B00006E02068C16880680090206E00B10127B9
:1011C00084F85DB084F85CA0384655E718BCBDE8EB
:1011D000E08F10B5401EB0F1807F01D3012010BD1B
:1011E0004FF0E02460610F21601701F02EF800201D
:1011F000A06107202061002010BDFEE72DE9F0412D
:1012000007461C4615460E462A2000F003FE380A03
:1012100000F00EFEF8B200F00BFE280A00F008FE07
:10122000E8B200F005FE2B2000F0F4FD300A00F0DB
:10123000FFFDF0B200F0FCFD200A00F0F9FDE0B285
:1012400000F0F6FDBDE8F0412C2000F0E3BD000009
:1012500070B5040AC5B2EF2300211A460846FFF70D
:10126000CDFF0F4900204FF4107200BF01F810406D
:1012700001EB4003401C80B25D709042F6D3012226
:1012800040210848FFF7CDF900244FF49065294626
:10129000034800F023FA641CA4B2642CF7D370BD99
:1012A00074000020000800480122D1030148FFF724
:1012B000B8B90000000400482DE9FE4F0024151ABB
:1012C000A346A246A146A0462746994220D1FFF751
:1012D00095FF0C980C99020A3348C9B207E000BF89
:1012E00000F8142000EB4403641C5970A4B2A5421A
:1012F000F6DC012240212D48FFF793F94FF6FF70ED
:1013000000EA450103B0284800F052B800F0E6B901
:101310002EB25A1A15B24FF0FF32002E02DD4FF0F6
:10132000010B04E003D0C6F1000393461EB2002D6A
:1013300002DD4FF0010A04E003D09246C5F100023D
:1013400015B2AE4201DDB4B200E0ACB2CDE900109E
:10135000601C029022E000BFDDE900100C9A00F052
:101360002FF808EB06001FFA80F8A04508D9A8EB73
:10137000040001991FFA80F801EB0B0080B2019084
:10138000781987B2A74205D9381B87B20098504414
:1013900080B2009009F101001FFA80F90299894595
:1013A000DAD900F00AB800007400002000080048F4
:1013B00030BCBDE8C04FFFF7A9BF1EBCBDE8E08F41
:1013C00010B514460B460246FFF718FF2046BDE84D
:1013D000104000F00BBD00002DE9FC5F82461C466A
:1013E0000D46914610464FEA520BFEF772FF9FEDF5
:1013F000231B53EC112BFEF7F7FEFEF777FFA5EB4F
:101400000B060AEB0008AAEB0007B3B21FFA88F23A
:10141000B1B2B8B20094FFF74FFF05EB0900CDE978
:10142000004083B2B1B21FFA88F05246FFF744FF82
:101430000198B3B281B2BAB200945046FFF73CFFB4
:1014400005EB0B06B3B21FFA88F2B1B2B8B2009442
:10145000FFF732FFA5EB0905ABB2B1B21FFA88F076
:1014600052460094FFF728FFB3B2BAB2A9B2504671
:101470000094FFF721FF00F005B80000B6F3FDD49B
:1014800078E9F63F3CBCBDE8C09F00002DE9F04183
:1014900086B014216846FEF79CFE2948C16C41F0D5
:1014A0000401C164C16C01F004010591C16C41F0FB
:1014B0008001C164C16C01F080010591C16C41F0F3
:1014C0000201C164C06C1F4F00F002004FF40045E0
:1014D0000590002229463846FFF7A3F8DFF8688018
:1014E0000022C0214046FFF79CF801260024009509
:1014F000CDE90164694638460394FEF7B3FFC02086
:101500000090CDE90164694640460394FEF7AAFFC6
:10151000002229463846FFF784F800228021404601
:10152000FFF77FF86420FEF78BFF01228021404601
:10153000FFF777F800F0DAFC06B0BDE8F0810000B4
:1015400000100240000400480008004810B5FFF7F2
:101550009DFF7820FEF774FF112000F05BFC7820DF
:10156000FEF76EFF362000F055FC002000F060FC16
:101570003A2000F04FFC652000F05AFCB22000F049
:1015800049FC0C2000F054FC0C2000F051FC002021
:1015900000F04EFC332000F04BFC332000F048FC00
:1015A000B72000F037FC722000F042FCBB2000F0B6
:1015B00031FC3D2000F03CFCC02000F02BFC2C2036
:1015C00000F036FCC22000F025FC012000F030FCC9
:1015D000C32000F01FFC192000F02AFCC42000F0FA
:1015E00019FC202000F024FCC62000F013FC012090
:1015F00000F01EFCD02000F00DFCA42000F018FC30
:10160000A12000F015FCE02000F004FCD02000F048
:101610000FFC042000F00CFC0D2000F009FC112050
:1016200000F006FC132000F003FC2B2000F000FC6F
:101630003F2000F0FDFB542000F0FAFB4C2000F0AE
:10164000F7FB182000F0F4FB0D2000F0F1FB0B205D
:1016500000F0EEFB1F2000F0EBFB232000F0E8FB86
:10166000E12000F0D7FBD02000F0E2FB042000F0E6
:10167000DFFB0C2000F0DCFB112000F0D9FB132075
:1016800000F0D6FB2C2000F0D3FB3F2000F0D0FB75
:10169000442000F0CDFB512000F0CAFB2F2000F0C9
:1016A000C7FB1F2000F0C4FB1F2000F0C1FB20205F
:1016B00000F0BEFB232000F0BBFB212000F0AAFBC2
:1016C000292000F0A7FBEF2300211A460846FFF768
:1016D00095FDBDE810400020FFF7BABD00F070BCDA
:1016E0002DE9F05F16460B9DF0220024A2EB550277
:1016F0009B46824251D3C5F1F0028A424DDB4A1922
:10170000521E93B200EB5502521E92B2FFF776FDC5
:10171000203EF0B2102D17D0202D15D00C2D3ED02C
:10172000182D3AD1314900EB40004FF0300901EB60
:10173000001800BF18F80450E00749D0042700261D
:10174000280647D50A9846E0690700D0012101EB39
:10175000D5016A08514301F0FF08254901EB001942
:10176000244901EBC01A16E0102D08D0202D14D109
:101770001AF804600027300604D50A9803E019F827
:101780000460F7E7584600F031FB7006060E7F1C38
:10179000082FF0DB641C4445E6DB00F02FB8164947
:1017A00000EB40004FF00C0801EB800700263D5D88
:1017B000280601D50A9800E0584600F017FB680695
:1017C000050E761C062EF3DB641C4445EEDBE4E7D5
:1017D0000827B4E7584600F009FB6806050E761C9A
:1017E000BE42ADDB641C4C45A4DBD6E7E42D00080B
:1017F000C4270008B43F00085023000830BCBDE8EF
:10180000C09F2DE9FC470446DDE90B8710191D46F2
:101810008A46C6B2DDF828900CE0B4420FD2CDE97A
:1018200000874B4651462046FFF75AFF04EB57000E
:1018300084B26D1C2A78A2F120005E28EDD900F058
:1018400000B80CBCBDE8F0872DE9FE4F9946DDE9F4
:101850000D4516468A460746DDF8308016E00C2C0A
:1018600019D0102C22D0182C2BD0202C34D0302C76
:101870000FD1CDF800804B46324651463846CDE96F
:10188000014500F033FA381987B2B61C30780028C9
:10189000E5D100F02CB8CDF800804B4632465146D9
:1018A0003846CDE9014500F025F8ECE7CDF8008099
:1018B0004B46324651463846CDE9014500F09AF88C
:1018C000E1E7CDF800804B46324651463846CDE937
:1018D000014500F00DF9D6E7CDF800804B463246C1
:1018E00051463846CDE9014500F082F9CBE71EBCF0
:1018F000BDE8E08F2DE9FF4F83B08046119D009039
:101900004FF00009680700D0012000EBD50000FB74
:1019100005FB05200026029006EB860000EBC601C1
:101920003148059A10F811301278934251D100EBEA
:1019300041000190417805984078814249D104984E
:1019400004992844401E83B208EB0500401E82B271
:101950004046FFF753FC002739E00198002400EBD4
:10196000070A12989AF8021000284FF0010000FAB6
:1019700004F001EA000114D021B14046069A04990E
:10198000FFF71EFD08F1010000991FFA80F8A8EB8F
:101990000100A84215D104988846401C80B20490EA
:1019A00013E009B1069800E01098C0B200F040FAC8
:1019B00009F10100C0B2B0FBF5F1814605FB1190C1
:1019C00078B1641CE4B2082CCBD37F1CFFB25F4516
:1019D000C3D3761C0298B6B286429DD307B000F0FE
:1019E00005B84FF00009F0E7346F000830BCBDE8DF
:1019F000C08F00002DE9FF4F83B08046119D0090FD
:101A00004FF00009680700D0012000EBD50000FB73
:101A100005FB0520002602903248059A06EB0611C8
:101A200010F811301278934251D100EB410001902F
:101A3000417805984078814249D104980499284416
:101A4000401E83B208EB0500401E82B24046FFF7FD
:101A5000D5FB002739E00198002400EB070A129813
:101A60009AF8021000284FF0010000FA04F001EA91
:101A7000000114D021B14046069A0499FFF7A0FC5A
:101A800008F1010000991FFA80F8A8EB0100A842B4
:101A900015D104988846401C80B2049013E009B127
:101AA000069800E01098C0B200F0C2F909F10100F8
:101AB000C0B2B0FBF5F1814605FB119078B1641C12
:101AC000E4B2082CCBD37F1CFFB25F45C3D3761C96
:101AD0000298B6B286429FD307B000F005B84FF027
:101AE0000009F0E7B66F000830BCBDE8C08F000009
:101AF0002DE9FF4F83B08046119D00904FF0000903
:101B0000680700D0012000EBD50000FB05FB2D206D
:101B10000026029006EB860000EB46113148059A3C
:101B200010F811301278934251D100EB410001902E
:101B3000417805984078814249D104980499284415
:101B4000401E83B208EB0500401E82B24046FFF7FC
:101B500055FB002739E00198002400EB070A129892
:101B60009AF8021000284FF0010000FA04F001EA90
:101B7000000114D021B14046069A0499FFF720FCD9
:101B800008F1010000991FFA80F8A8EB0100A842B3
:101B900015D104988846401C80B2049013E009B126
:101BA000069800E01098C0B200F042F909F1010077
:101BB000C0B2B0FBF5F1814605FB119078B1641C11
:101BC000E4B2082CCBD37F1CFFB25F45C3D3761C95
:101BD0000298B6B286429DD307B000F005B84FF028
:101BE0000009F0E76070000830BCBDE8C08F00005D
:101BF0002DE9FF4F83B08046119D00904FF0000902
:101C0000680700D0012000EBD50000FB05FB032096
:101C1000002602903248059A06EB861110F8113022
:101C20001278934251D100EB410001904178059820
:101C30004078814249D1049804992844401E83B2D7
:101C400008EB0500401E82B24046FFF7D7FA002796
:101C500039E00198002400EB070A12989AF8021064
:101C600000284FF0010000FA04F001EA000114D04E
:101C700021B14046069A0499FFF7A2FB08F1010042
:101C800000991FFA80F8A8EB0100A84215D104982A
:101C90008846401C80B2049013E009B1069800E029
:101CA0001098C0B200F0C4F809F10100C0B2B0FB56
:101CB000F5F1814605FB119078B1641CE4B2082C63
:101CC000CBD37F1CFFB25F45C3D3761C0298B6B25C
:101CD00086429FD307B000F005B84FF00009F0E747
:101CE000627D000830BCBDE8C08F00002DE9FF4FC9
:101CF00083B08046119D00904FF00009680700D026
:101D0000012000EBD50000FB05FB0E200026029011
:101D100006EB061000EBC6113148059A10F8113099
:101D20001278934251D100EB41000190417805981F
:101D30004078814249D1049804992844401E83B2D6
:101D400008EB0500401E82B24046FFF757FA002715
:101D500039E00198002400EB070A12989AF8021063
:101D600000284FF0010000FA04F001EA000114D04D
:101D700021B14046069A0499FFF722FB08F10100C1
:101D800000991FFA80F8A8EB0100A84215D1049829
:101D90008846401C80B2049013E009B1069800E028
:101DA0001098C0B200F044F809F1010080B2B0FB15
:101DB000F5F1814605FB119078B1641CA4B2082CA2
:101DC000CBD37F1CBFB25F45C3D3761C0298B6B29B
:101DD00086429DD307B000F005B84FF00009F0E748
:101DE000E87E000830BCBDE8C08F000008B50021C7
:101DF0000091010A8DF800108DF8010001224021A8
:101E00000348FEF70EFC02216846FFF767FC08BD99
:101E10000008004801B5002240210448FEF701FCFB
:101E200001216846FFF75AFC08BD00000008004881
:101E300001B5012240210448FEF7F3FB0121684669
:101E4000FFF74CFC08BD000000080048F0B587B063
:101E500014216846FEF7BDF92148C16C41F08001AC
:101E6000C164C16C01F080010591C16C41F00401B5
:101E7000C164C16C01F004010591C16C41F0020123
:101E8000C164C16C01F002010591C16C41F0010116
:101E9000C164C06C134E00F001004FF40044059083
:101EA000002221463046FEF7BCFB0F4F0022C02126
:101EB0003846FEF7B6FB0125CDE900450024029423
:101EC000694630460394FEF7CDFAC0200090CDE974
:101ED0000154694638460394FEF7C4FA07B0F0BDD2
:101EE000001002400004004800080048124810B5E5
:101EF000104901604FF48271416000214FF4E062AB
:101F0000C0E9021202220261012242615202C0E9CA
:101F10000621016207224162C0E90A12016341639E
:101F2000FEF7E0FF002803D0BDE81040FEF787BAB7
:101F300010BD00000038004010000020FEE7704790
:101F400070470000F8B51C4D06460024A86DC0007F
:101F500002D5FEF727FC0DE0A86D40F08050A86583
:101F6000A86D00F080500090FEF71CFCA96D21F0D8
:101F70008051A965B0F5007F04D0802E07D94FF0BD
:101F800003040AE0802E08D9A02E01D804E001D174
:101F9000022402E0702E00D101240848016821F0DB
:101FA000070121430160006800F00700A04201D052
:101FB0000120F8BD0020F8BD0010024000200240C2
:101FC0000A4601464FF47A730148FFF73BB8000018
:101FD00010000020F8B515460E460B460092044648
:101FE00000224FF4C05100F019F888B9334600229E
:101FF00080212046009500F079F848B93346002248
:102000004FF4C0612046009500F008F8002804D085
:10201000206E40F0200020660320F8BD2DE9F84F27
:10202000994617460E4604460A9DFEF7FFFA411BE5
:10203000A9EB0105FEF7FAFA804629484FF4C06A79
:102040000068C0EBC00000EB8000000D684300900A
:102050003FE0564501D107B9007BB9F1FF3F38D0C9
:10206000FEF7E4FAA0EB0800A84203D215B10098ED
:1020700060B32CE02068416821F0E00141606068B5
:10208000B0F5827F0BD1A068B0F5004F02D0B0F55B
:10209000806F04D12068016821F040010160A06ACE
:1020A000B0F5005F09D12068016821F4005101609A
:1020B0002068016841F400510160012084F85D004E
:1020C000002084F85C00032000F00CB80025401EBE
:1020D0000090206881683140B942BAD10020F3E70E
:1020E0000C00002018BCBDE8E08F00002DE9F8438B
:1020F0001E46914688460446089DFEF797FA401B07
:10210000351AFEF793FA074625480068C0F3CB302E
:10211000684338E0701C37D0FEF788FAC01BA8422D
:1021200003D215B1009860B32CE02068416821F01B
:10213000E00141606068B0F5827F0BD1A068B0F526
:10214000004F02D0B0F5806F04D12068016821F003
:1021500040010160A06AB0F5005F09D12068016804
:1021600021F4005101602068016841F400510160D0
:10217000012084F85D00002084F85C000320BDE8A5
:10218000F8830025401E00902068816838EA01002D
:1021900004D000214945BDD10020F0E70121F9E735
:1021A0000C0000207047FEF747BA10B596B04421E6
:1021B0006846FEF70EF8142111A8FEF70AF801216F
:1021C0000804CDE90010022003240A90CDE90B4158
:1021D00014210D910721CDE90E1010906846FEF7ED
:1021E000CBFB0F20CDE91104002013901490159023
:1021F000042111A8FEF7DEFA4FF40070FEF79EFAF4
:1022000016B010BD0D48016841F4700101600C4822
:10221000016841F001010160002181600268094B01
:102220001A4002608214C260026822F480220260B6
:1022300081610249C00380390860704788ED00E081
:1022400000100240FFFFF6EAFEE70907090E00282A
:1022500004DB00F1E02080F80014704700F00F006C
:1022600000F1E02080F8141D704702E008C8121F3A
:1022700008C1002AFAD170477047002001E001C16F
:10228000121F002AFBD170470EB5FEF7DDF9FFF7EC
:102290008CFFFFF7DBFDFFF729FEFFF757F9FFF78C
:1022A00003F8002518244FF6FF764FF001084FF48D
:1022B00078470095CDE9016400210BA3F022084680
:1022C000FFF79FFACDE900543B460CA232210020D3
:1022D000CDF80880FFF7B8FA3B461E22962164200D
:1022E000FFF77AF8E5E7000048656C6C6F20323044
:1022F000313931313931333121000000CAB1BCE408
:10230000BCECB2E2C9E8D6C3C4A3CABD0000000059
:102310000000000000000000010203040607080995
:10232000A0860100400D0300801A060000350C0055
:1023300040420F0080841E0000093D0000127A0018
:102340000024F40000366E010048E801006CDC0255
:10235000000000000000000000000000000020203D
:10236000202020000020000028285000000000004D
:102370000000000000005050F85050F8505000008D
:10238000002070A8A0603028A8702000000048A895
:10239000B0A874345448000000002050506CA8A825
:1023A0009468000040408000000000000000000031
:1023B000081010202020202010100800402020109D
:1023C000101010102020400000000020A87070A8FD
:1023D0002000000000000010107C10100000000021
:1023E00000000000000000004040800000000000ED
:1023F00000FC0000000000000000000000000000E1
:102400000040000000040808101020204040800018
:10241000000070888888888888700000000020602C
:1024200020202020207000000000708888102040AC
:1024300080F80000000070880830080888700000EC
:1024400000001030305090F8103800000000F88084
:1024500080F08808887000000000304880B0C8888C
:102460008870000000007808101020202020000054
:10247000000070888870888888700000000070886C
:1024800088986808906000000000000020000000AC
:1024900000200000000000000020000000202000BC
:1024A000000008102040402010080000000000003C
:1024B000FC00FC0000000000000040201008081094
:1024C00020400000000070888810202000200000BC
:1024D0000000384494B4B4B8443800000000202010
:1024E0003050507848CC00000000F0484870484810
:1024F00048F00000000078888080808088700000AC
:102500000000F0484848484848F000000000F848FB
:102510005070504048F800000000F848507050409B
:1025200040E000000000384880809C88483000006F
:102530000000CC484878484848CC00000000F8200B
:102540002020202020F8000000007C101010101027
:10255000101090E00000EC485060504848EC00003B
:102560000000E0404040404044FC00000000DCD857
:10257000D8D8A8A8A8AC00000000DC486868585863
:1025800048E800000000708888888888887000000B
:102590000000F0484870404040E0000000007088B3
:1025A000888888E8987018000000F0484870504803
:1025B00048EC0000000078888060100888F0000077
:1025C0000000F8A820202020207000000000CC4847
:1025D00048484848483000000000CC484850503037
:1025E000202000000000A8A8A8A8705050500000AB
:1025F0000000D8505020205050D800000000D85083
:1026000050502020207000000000F8901020204042
:1026100048F80000382020202020202020203800EA
:1026200000404020202010101008080070101010EA
:10263000101010101010700020500000000000005A
:10264000000000000000000000000000000000FC8E
:10265000402000000000000000000000000000001A
:1026600000304838483C000000C0404040704848B6
:10267000487000000000000000384840483000006A
:102680000018080808384848483C000000000000CE
:10269000003048784038000000182420207820209E
:1026A0002078000000000000003C483040384438EA
:1026B00000C040404070484848EC00000020200026
:1026C000006020202070000000101000003010106A
:1026D000101010E000C040404058506050C800004A
:1026E00000E020202020202020F800000000000032
:1026F00000F0A8A8A8A800000000000000F04848CA
:1027000048EC00000000000000304848483000005D
:102710000000000000F04848487040E00000000061
:10272000003848484838081C0000000000D86040C5
:1027300040E0000000000000007840300878000011
:102740000000002020782020203800000000000039
:1027500000D84848483C00000000000000D8505015
:10276000202000000000000000A8A87050500000C9
:102770000000000000D8502050D8000000000000E9
:1027800000CC4848301020C0000000000078102025
:1027900020780000181010101030101010101800C1
:1027A00010101010101010101010101060202020A9
:1027B0002010202020206000689000000000000011
:1027C0000000000000000000000000000000000009
:1027D0000000000000000010101010101010000089
:1027E0001010000000122424480000000000000027
:1027F000000000000000001212127E2424247E2417
:10280000242400000000083C4A4A48380C0A0A4ABE
:102810004A3C080800000044A4A8A8B0541A2A2A78
:102820004A44000000000030484848506EA4949884
:1028300089760000006020204000000000000000B9
:10284000000000000002040808101010101010080A
:1028500008040200004020101008080808080810AA
:1028600010204000000000001010D63838D610109C
:102870000000000000000000000808087F080808A9
:102880000000000000000000000000000000000048
:102890006020204000000000000000007E000000DA
:1028A0000000000000000000000000000000000028
:1028B00060600000000002040404080810101020EA
:1028C000204040000000001824424242424242425E
:1028D0002418000000000008380808080808080844
:1028E000083E00000000003C424242020408102062
:1028F000427E00000000003C4242020418040242F2
:10290000423C0000000000040C0C142424447F040A
:10291000041F00000000007E404040784402024254
:1029200044380000000000182440405C62424242EB
:10293000221C00000000007E420404080810101051
:10294000101000000000003C424242241824424281
:10295000423C00000000003844424242463A020233
:1029600024180000000000000000181800000000FB
:102970001818000000000000000000100000000017
:102980000010101000000002040810204020100861
:10299000040200000000000000007E00007E000035
:1029A000000000000000004020100804020408108D
:1029B000204000000000003C424262040808080079
:1029C0001818000000000038445AAAAAAAAAAA5C53
:1029D000423C00000000001010182828243C44420B
:1029E00042E70000000000F8444444784442424278
:1029F00044F800000000003E424280808080804217
:102A000044380000000000F8444242424242424240
:102A100044F80000000000FC424848784848404222
:102A200042FC0000000000FC424848784848404012
:102A300040E000000000003C44448080808E8444DC
:102A400044380000000000E7424242427E424242D7
:102A500042E700000000007C101010101010101051
:102A6000107C00000000003E08080808080808085C
:102A7000080888F0000000EE444850705048484470
:102A800044EE0000000000E0404040404040404034
:102A900042FE0000000000EE6C6C6C6C6C545454F0
:102AA00054D60000000000C7626252524A4A4A46A9
:102AB00046E20000000000384482828282828282E4
:102AC00044380000000000FC424242427C4040404A
:102AD00040E000000000003844828282828282B29C
:102AE0004C380600000000FC4242427C4848444406
:102AF00042E300000000003E42424020180402422F
:102B0000427C0000000000FE921010101010101007
:102B100010380000000000E7424242424242424276
:102B2000423C0000000000E74242442424282818C8
:102B300010100000000000D654545454546C28283F
:102B400028280000000000E7422424181818242434
:102B500042E70000000000EE444428281010101046
:102B6000103800000000007E840408081020204275
:102B700042FC0000001E1010101010101010101059
:102B800010101E0000004020202010101008080423
:102B90000404020200780808080808080808080861
:102BA0000808780000182400000000000000000061
:102BB0000000000000000000000000000000000015
:102BC000000000FF00601000000000000000000096
:102BD000000000000000000000000038440C3444F5
:102BE0004C36000000000000C040405864424242A1
:102BF00064580000000000000000001C224040401B
:102C0000221C0000000000000602023E4242424236
:102C1000463B0000000000000000003C42427E40B5
:102C2000423C0000000000000C12107C101010103C
:102C3000107C0000000000000000003E44443840CA
:102C40003C42423C00000000C040405C62424242C4
:102C500042E700000000003030000070101010103B
:102C6000107C00000000000C0C00001C0404040494
:102C70000404447800000000C040404E48507048B2
:102C800044EE000000000010701010101010101022
:102C9000107C000000000000000000FE4949494986
:102CA00049ED000000000000000000DC62424242EA
:102CB00042E70000000000000000003C42424242A7
:102CC000423C000000000000000000D86442424284
:102CD000645840E0000000000000001A2642424212
:102CE000261A020700000000000000EE322020201B
:102CF00020F80000000000000000003E42403C02BE
:102D0000427C0000000000000010107C1010101029
:102D1000120C000000000000000000C642424242C7
:102D2000463B000000000000000000EE444428285C
:102D30001010000000000000000000DB894A5A5417
:102D40002424000000000000000000762418181859
:102D5000246E000000000000000000E74224241858
:102D600018101060000000000000007E44081010E1
:102D7000227E000000030404040404040804040484
:102D800004040300080808080808080808080808D8
:102D90000808080800C02020202020201020202023
:102DA0002020C000205A04000000000000000000A5
:102DB0000000000000000000000000000000000013
:102DC0000000000000000000000000000000000003
:102DD00000000000000000000000000000000000F3
:102DE00000000000000000000000000000000000E3
:102DF00000000000000000000000000000000000D3
:102E000000000000000000000000000000000000C2
:102E100000000000000000000000000006000600A6
:102E2000060006000600060006000200040004007A
:102E3000040000000000000006000600060000007C
:102E40000000000000000000066006600CC0198051
:102E5000110022000000000000000000000000003F
:102E60000000000000000000000000000000000062
:102E700000000000000000000000000008400840C2
:102E8000084008407FE07FE01040108010801080F4
:102E900010807FE07FE02080208020802080000064
:102EA00000000000000000000000020002000F808F
:102EB0001AC032C033C032001A000E00070003806F
:102EC000038002C032C03AC032C012800F0002003C
:102ED0000200000000000000000000007080508030
:102EE0008900890089008A008A005C0075C005405D
:102EF0000A200A20122012201220214021C00000A6
:102F00000000000000000000000000001C0036006F
:102F10003600360036003600340019E0388058801C
:102F2000CC80CC80C680C700C31063903CE000001A
:102F30000000000000000000300038000800080019
:102F40001000200000000000000000000000000051
:102F50000000000000000000000000000000000071
:102F60000000000000000000002000400080010080
:102F70000100020002000400040004000400040038
:102F80000400040002000200010001000080004073
:102F90000020000000000000400020001000080099
:102FA0000800040004000200020002000200020007
:102FB00002000200040004000800080010002000C5
:102FC00040000000000000000000000000000000C1
:102FD000020003000200623072F00B800F807AF072
:102FE0006230020002000200000000000000000049
:102FF00000000000000000000000000000000000D1
:103000000000020002000200020002007FF0020045
:1030100002000200020002000000000000000000A8
:1030200000000000000000000000000000000000A0
:103030000000000000000000000000000000000090
:103040000000000000000000300038000800080008
:103050001000200000000000000000000000000040
:103060000000000000000000000000007FE0000001
:103070000000000000000000000000000000000050
:103080000000000000000000000000000000000040
:103090000000000000000000000000000000000030
:1030A0000000000000000000380038003800000078
:1030B000000000000000000000200060004000C090
:1030C00000800080010001000200020006000400F0
:1030D000040008000800100010003000200060000C
:1030E00040000000000000000000000000000F0091
:1030F000198030C030C06060606060606060606097
:1031000060606060606030C030C019800F000000F7
:1031100000000000000000000000000000000200AD
:103120003E00060006000600060006000600060037
:103130000600060006000600060006003FC000006C
:1031400000000000000000000000000000001F0060
:10315000218040C060C060C000C0008001800300CA
:103160000600040008001040204060407FC00000BE
:1031700000000000000000000000000000001E0031
:103180006300618061800180018003000E00018086
:10319000008000C000C060C060C061801F000000EF
:1031A000000000000000000000000000000001809E
:1031B00001800380058005800980118011802180B5
:1031C00041807FF0018001800180018007E00000E4
:1031D00000000000000000000000000000003FC0F0
:1031E000200020002000200020002F00318020C07F
:1031F00000C000C060C060C0418021801F0000008E
:103200000000000000000000000000000000078037
:1032100018C030C0300020006000678068C0706057
:103220006060606060602060304018C00F00000087
:1032300000000000000000000000000000001FE08F
:1032400030602040208000800080010001000200EA
:10325000020002000600060006000600060000004C
:1032600000000000000000000000000000001F80BF
:1032700030C0606060606060304038C00F00138014
:1032800030C0606060606060606030C00F800000CF
:1032900000000000000000000000000000000F001F
:1032A000308030C0604060606060606060E03160CD
:1032B0001E60006000C000C0308031801E00000031
:1032C00000000000000000000000000000000000FE
:1032D00000000000000000000700070007000000D9
:1032E00000000000000000000700070007000000C9
:1032F00000000000000000000000000000000000CE
:1033000000000000000000000600060000000000B1
:10331000000000000000000000000600060002009F
:103320000400040000000000000000000020004035
:1033300000800100020004000800100020001000BE
:10334000080004000200010000800040002000008E
:10335000000000000000000000000000000000006D
:1033600000000000000000007FE0000000000000FE
:103370007FE00000000000000000000000000000EE
:10338000000000000000000000000000200010000D
:1033900008000400020001000080004000200040FE
:1033A000008001000200040008001000200000005E
:1033B000000000000000000000000000000007C046
:1033C0001860203020303030303000E001800200C2
:1033D00002000200000000000700070007000000D4
:1033E000000000000000000000000000070018C0FE
:1033F000304033A026A066A065A06D206D206D2012
:103400006D206D4027803020304018C00F00000034
:1034100000000000000000000000000000000600A6
:1034200006000A000B00090009001100118010803D
:103430001F8020C020C0204040404060F0F00000CD
:1034400000000000000000000000000000007F00FD
:1034500031C030C030C030C030C031803F0030C0DB
:103460003040306030603060306030C07F800000BD
:10347000000000000000000000000000000007C085
:1034800018C03060302020206000600060006000C4
:103490006000600060203020304018C00F00000045
:1034A0000000000000000000000000000000FE001E
:1034B000318030C030C030603060306030603060AB
:1034C00030603060306030C030C03180FE000000BD
:1034D0000000000000000000000000000000FFC02D
:1034E00060C0602060206000610061007F006100BA
:1034F000610061006000602060206040FFC000004B
:103500000000000000000000000000000000FFC0FC
:1035100060C0602060206000610061007F00610089
:10352000610061006000600060006000F800000061
:1035300000000000000000000000000000000F007C
:103540001880304030402040600060006000600023
:1035500063F060C060C030C030C018C00F00000011
:103560000000000000000000000000000000F0F07B
:103570006060606060606060606060607FE06060AC
:10358000606060606060606060606060F0F00000DB
:1035900000000000000000000000000000003FC02C
:1035A00006000600060006000600060006000600EB
:1035B0000600060006000600060006003FC00000E8
:1035C00000000000000000000000000000001FE0FC
:1035D00003000300030003000300030003000300D3
:1035E0000300030003000300030003000300630063
:1035F00066003C0000000000000000000000F3C076
:10360000618063006200640068006C0074007600F2
:103610006200630061006180608060C0F1E00000D2
:103620000000000000000000000000000000F800A2
:10363000600060006000600060006000600060008A
:10364000600060006000602060206040FFC00000FB
:103650000000000000000000000000000000E0E0AA
:1036600061C061C071C071C072C072C052C05AC026
:103670005AC05CC04CC04CC04CC048C0E1E0000027
:10368000000000000000000000000000000071F0D9
:103690003040384038402C402C40264026402240C4
:1036A0002340214021C021C020C020C0F84000009C
:1036B00000000000000000000000000000000F00FB
:1036C000198030C030406060606060606060606041
:1036D000606060606060304030C019800F000000A2
:1036E0000000000000000000000000000000FF00DB
:1036F00060C06060606060606060606061C07F004A
:10370000600060006000600060006000F800000081
:1037100000000000000000000000000000000F009A
:10372000198030C0304060606060606060606060E0
:10373000606060606E60324033C019800F0001E04D
:1037400000C0000000000000000000000000FF803A
:1037500060C0606060606060606060C07F00620048
:1037600063006100618060C060C06060F070000054
:1037700000000000000000000000000000001F40EA
:1037800030C060406040600070003C001F0007C017
:1037900001C000E040604060606030C00F80000009
:1037A00000000000000000000000000000007FE0BA
:1037B0004620861086100600060006000600060059
:1037C0000600060006000600060006001F80000036
:1037D000000000000000000000000000000078E091
:1037E0003040304030403040304030403040304059
:1037F0003040304030403040304018800F000000F2
:103800000000000000000000000000000000F0E0E8
:10381000604020802080308030801100110019002D
:1038200019000A000A000E000C0004000400000049
:103830000000000000000000000000000000EF7029
:103840004620422062206220264026402740274012
:103850003940398019801980118011001100000051
:10386000000000000000000000000000000079E0FF
:1038700030801080188009000D000600040006004A
:1038800006000B0009001180108020C071E00000CC
:103890000000000000000000000000000000F0F048
:1038A000602020403040108018801D000D000E0068
:1038B0000600060006000600060006001F80000045
:1038C00000000000000000000000000000003FE0D9
:1038D000304060C04080018001000200020004000E
:1038E0000400080018001020302020407FC0000095
:1038F000000000000000000007C0040004000400F5
:103900000400040004000400040004000400040097
:103910000400040004000400040004000400040087
:1039200007C0000000000000000000002000200090
:103930001000100008000800080004000400020045
:1039400002000300010001000080008000400040F0
:1039500000400020000000003E00020002000200C3
:103960000200020002000200020002000200020047
:103970000200020002000200020002000200020037
:103980003E0000000000060009001080000000005A
:103990000000000000000000000000000000000027
:1039A0000000000000000000000000000000000017
:1039B0000000000000000000000000000000000007
:1039C00000000000000000000000000000000000F7
:1039D00000000000000000000000000000000000E7
:1039E0000000FFF0000000001800060000000000CA
:1039F00000000000000000000000000000000000C7
:103A000000000000000000000000000000000000B6
:103A100000000000000000000000000000000000A6
:103A200000000000000000000F8030C030C000C067
:103A300007C038C070C060C060C071D03E70000068
:103A400000000000000000000000000010007000F6
:103A5000300030003000300033803CC038603060CF
:103A60003060306030603060304038C02780000007
:103A70000000000000000000000000000000000046
:103A800000000000000000000F00318031806180E4
:103A90006000600060006040304030800F00000037
:103AA000000000000000000000000000004003C013
:103AB00000C000C000C000C01EC031C030C060C027
:103AC00060C060C060C060C020C031E01E800000E7
:103AD00000000000000000000000000000000000E6
:103AE0000000000000000000078018C01040306097
:103AF00030603FE0300030001820184007800000A0
:103B0000000000000000000000000000000003C0F2
:103B100006600C600C000C007F800C000C000C0098
:103B20000C000C000C000C000C000C003F8000008E
:103B30000000000000000000000000000000000085
:103B400000000000000000000FE01B6031803180A9
:103B5000318019801F0030003F0033C060C060C05A
:103B600071C01F0000000000000000001000700085
:103B70003000300030003000378038C030C030C0F6
:103B800030C030C030C030C030C030C079E000003C
:103B9000000000000000000000000000000006001F
:103BA00006000000000002003E00060006000600BD
:103BB0000600060006000600060006003FC00000E2
:103BC0000000000000000000000000000000038072
:103BD00003800000000000800F80018001800180D0
:103BE00001800180018001800180018001800180CD
:103BF00033003E00000000000000000010007000D4
:103C0000300030003000300031C03100310032006F
:103C100036003A0031003180308030C079E0000059
:103C200000000000000000000000000002003E0054
:103C30000600060006000600060006000600060054
:103C40000600060006000600060006003FC0000051
:103C50000000000000000000000000000000000064
:103C60000000000000000000ECE077606660666025
:103C7000666066606660666066606660FFF00000B1
:103C80000000000000000000000000000000000034
:103C90000000000000000000778038C030C030C055
:103CA00030C030C030C030C030C030C079E000001B
:103CB0000000000000000000000000000000000004
:103CC00000000000000000000F00198030C060609C
:103CD000606060606060606030C030C00F000000F5
:103CE00000000000000000000000000000000000D4
:103CF0000000000000000000778038C030603060B5
:103D0000306030603060306030C038C037803000A4
:103D100030007C00000000000000000000000000F7
:103D200000000000000000001E4031C030C060C034
:103D300060C060C060C060C020C031C01EC000C094
:103D400000C003E0000000000000000000000000D0
:103D50000000000000000000F9C01A601C6018009C
:103D6000180018001800180018001800FF000000C4
:103D70000000000000000000000000000000000043
:103D800000000000000000000FC038C0304030408C
:103D90001C000F0003C020C020C031C03F800000C5
:103DA0000000000000000000000000000000000013
:103DB000040004000C000C007F800C000C000C00C0
:103DC0000C000C000C000C000C400C4007800000A4
:103DD00000000000000000000000000000000000E3
:103DE000000000000000104071C030C030C030C082
:103DF00030C030C030C030C030C039E01E8000005C
:103E000000000000000000000000000000000000B2
:103E1000000000000000000078E0304010801080BA
:103E2000188009000D000D000600060004000000C7
:103E30000000000000000000000000000000000082
:103E40000000000000000000EF70462062202640C5
:103E500026403740398019801980198010000000F1
:103E60000000000000000000000000000000000052
:103E700000000000000000003DE0188008800D00F8
:103E80000600060007000900108010C079E000005D
:103E90000000000000000000000000000000000022
:103EA000000000000000000079E010801080108009
:103EB000090009000D0006000600060004000400C9
:103EC0002400380000000000000000000000000096
:103ED00000000000000000003F802180230022003D
:103EE000060004000C001840104030C03F80000065
:103EF000000000000000000000C0010001000100FF
:103F000001000100010001000100020004000200A4
:103F10000100010001000100010001000100010099
:103F200000C00000020002000200020002000200C5
:103F30000200020002000200020002000200020071
:103F40000200020002000200020002000200020061
:103F50000200020000000000300008000800080015
:103F6000080008000800080008000400020004001F
:103F70000800080008000800080008000800080001
:103F800030000000000038004420432001C0000041
:103F90000000000000000000000000000000000021
:103FA0000000000000000000000000000000000011
:103FB0000000000000000000000000000000000001
:103FC00000000000000000000000000000000000F1
:103FD00000000000000000000000000000000000E1
:103FE00000000000000000000000000000000000D1
:103FF00000000000000000000000000000000000C1
:1040000000000000000000000000000000000000B0
:1040100000000000000000000000000000000000A0
:104020000000000000000000000000000000000090
:104030000000000000000000000000000000000080
:1040400003C003C003C003C003C003C001C001809C
:1040500001800180018001800180018001800000D9
:1040600000000000018003C003C0018000000000C8
:104070000000000000000000000000000000000040
:104080000000000000000000000000000000000030
:104090000000000000000000000000000000000020
:1040A0000000000000000000000000000000000010
:1040B00000000000000000000318073807380E70E9
:1040C0000C6018C0318021000000000000000000DA
:1040D00000000000000000000000000000000000E0
:1040E00000000000000000000000000000000000D0
:1040F00000000000000000000000000000000000C0
:1041000000000000000000000000000000000000AF
:10411000000000000000000000000000000000009F
:10412000000000000000000000000000000000008F
:10413000000000000000000000000000000000007F
:10414000040804080408040804087FFE7FFE7FFEBC
:104150000810081008100810081008107FFE7FFED5
:104160007FFE1830102010201020102000000000CA
:10417000000000000000000000000000000000003F
:10418000000000000000000000000000000000002F
:10419000000000000000000000000000000000001F
:1041A000000000000000000000000000000000000F
:1041B00000000000000000000000000001000100FD
:1041C00003C00D3009181918193819381D000D00D1
:1041D0000F00070003C001E001F0013001380118B1
:1041E0003918391831183130196007C00100010041
:1041F00001000000000000000000000000000000BE
:1042000000000000000000000000000000000000AE
:10421000000000000000000000000000000000009E
:10422000000000000000000000000000000000008E
:10423000000000000000000000000000000000007E
:1042400038106C104420C620C640C640C640C68008
:10425000C68044806D38396C024402C602C604C66A
:1042600004C608C608C60844106C103800000000D8
:10427000000000000000000000000000000000003E
:10428000000000000000000000000000000000002E
:10429000000000000000000000000000000000001E
:1042A000000000000000000000000000000000000E
:1042B00000000000000000000000000000000000FE
:1042C0000F0019003180318031803180310033009E
:1042D0003A001C00387C3C104C10CE10C620C72081
:1042E000C320C1C0C1C260E6317C1E38000000009E
:1042F00000000000000000000000000000000000BE
:1043000000000000000000000000000000000000AD
:10431000000000000000000000000000000000009D
:10432000000000000000000000000000000000008D
:10433000000000000000000038003C003C000C00C1
:104340000C000800300060000000000000000000C9
:10435000000000000000000000000000000000005D
:10436000000000000000000000000000000000004D
:10437000000000000000000000000000000000003D
:10438000000000000000000000000000000000002D
:10439000000000000000000000000000000000001D
:1043A000000000000000000000000000000000000D
:1043B00000000000000000000002000400080018D7
:1043C000003000200060004000C000C0018001807B
:1043D000018001800180018001800180018000C096
:1043E00000C00040006000200030001800080004F9
:1043F00000020000000000000000000000000000BB
:1044000000000000000000000000000000000000AC
:10441000000000000000000000000000000000009C
:10442000000000000000000000000000000000008C
:1044300000000000000000004000200010001800F4
:104440000C0004000600020003000300018001804C
:1044500001800180018001800180018001800300D2
:1044600003000300060004000C00180010002000E8
:1044700040000000000000000000000000000000FC
:10448000000000000000000000000000000000002C
:10449000000000000000000000000000000000001C
:1044A000000000000000000000000000000000000C
:1044B00000000000000000000000000000000000FC
:1044C0000000000000C001C001C030C6388E1C9C36
:1044D00006B001C001C006B01C9C388E318601C0F8
:1044E00001C001C00000000000000000000000004A
:1044F00000000000000000000000000000000000BC
:1045000000000000000000000000000000000000AB
:10451000000000000000000000000000000000009B
:10452000000000000000000000000000000000008B
:10453000000000000000000000000000000000007B
:1045400000000000000000800080008000800080EB
:10455000008000803FFE008000800080008000809E
:10456000008000800000000000000000000000004B
:10457000000000000000000000000000000000003B
:10458000000000000000000000000000000000002B
:10459000000000000000000000000000000000001B
:1045A000000000000000000000000000000000000B
:1045B00000000000000000000000000000000000FB
:1045C00000000000000000000000000000000000EB
:1045D00000000000000000000000000000000000DB
:1045E0000000000038003C003C000C000C000800FB
:1045F000300060000000000000000000000000002B
:1046000000000000000000000000000000000000AA
:10461000000000000000000000000000000000009A
:10462000000000000000000000000000000000008A
:10463000000000000000000000000000000000007A
:10464000000000000000000000000000000000006A
:10465000000000007FFE00000000000000000000DD
:10466000000000000000000000000000000000004A
:10467000000000000000000000000000000000003A
:10468000000000000000000000000000000000002A
:10469000000000000000000000000000000000001A
:1046A000000000000000000000000000000000000A
:1046B00000000000000000000000000000000000FA
:1046C00000000000000000000000000000000000EA
:1046D00000000000000000000000000000000000DA
:1046E0000000000018003C003C0018000000000022
:1046F00000000000000000000000000000000000BA
:1047000000000000000000000000000000000000A9
:104710000000000000000000000000000000000099
:104720000000000000000000000000000000000089
:10473000000000000000000000000002000600046D
:10474000000C00080018001000300020006000403D
:1047500000C0008001800100030002000600040088
:104760000C0008001800100030002000600040001D
:104770000000000000000000000000000000000039
:104780000000000000000000000000000000000029
:104790000000000000000000000000000000000019
:1047A0000000000000000000000000000000000009
:1047B00000000000000000000000000000000000F9
:1047C00003C006200C30181818181808300C300CCC
:1047D000300C300C300C300C300C300C300C300CF9
:1047E0001808181818180C30062003C00000000024
:1047F00000000000000000000000000000000000B9
:1048000000000000000000000000000000000000A8
:104810000000000000000000000000000000000098
:104820000000000000000000000000000000000088
:104830000000000000000000000000000000000078
:10484000008001801F800180018001800180018043
:104850000180018001800180018001800180018050
:10486000018001800180018003C01FF8000000006A
:104870000000000000000000000000000000000038
:104880000000000000000000000000000000000028
:104890000000000000000000000000000000000018
:1048A0000000000000000000000000000000000008
:1048B00000000000000000000000000000000000F8
:1048C00007E008381018200C200C300C300C000CBD
:1048D000001800180030006000C0018003000200D2
:1048E000040408041004200C3FF83FF80000000006
:1048F00000000000000000000000000000000000B8
:1049000000000000000000000000000000000000A7
:104910000000000000000000000000000000000097
:104920000000000000000000000000000000000087
:104930000000000000000000000000000000000077
:1049400007C01860303030183018301800180018C0
:104950000030006003C0007000180008000C000C5C
:10496000300C300C30083018183007C00000000040
:104970000000000000000000000000000000000037
:104980000000000000000000000000000000000027
:104990000000000000000000000000000000000017
:1049A0000000000000000000000000000000000007
:1049B00000000000000000000000000000000000F7
:1049C0000060006000E000E00160016002600460DF
:1049D00004600860086010603060206040607FFC08
:1049E0000060006000600060006003FC00000000E8
:1049F00000000000000000000000000000000000B7
:104A000000000000000000000000000000000000A6
:104A10000000000000000000000000000000000096
:104A20000000000000000000000000000000000086
:104A30000000000000000000000000000000000076
:104A40000FFC0FFC100010001000100010001000F0
:104A500013E0143018181008000C000C000C000CA7
:104A6000300C300C20182018183007C0000000004F
:104A70000000000000000000000000000000000036
:104A80000000000000000000000000000000000026
:104A90000000000000000000000000000000000016
:104AA0000000000000000000000000000000000006
:104AB00000000000000000000000000000000000F6
:104AC00001E006180C18081818001000100030003B
:104AD00033E0363038183808300C300C300C300CDD
:104AE000300C180C18080C180E3003E00000000001
:104AF00000000000000000000000000000000000B6
:104B000000000000000000000000000000000000A5
:104B10000000000000000000000000000000000095
:104B20000000000000000000000000000000000085
:104B30000000000000000000000000000000000075
:104B40001FFC1FFC10083010201020200020004007
:104B500000400040008000800100010001000100D1
:104B60000300030003000300030003000000000033
:104B70000000000000000000000000000000000035
:104B80000000000000000000000000000000000025
:104B90000000000000000000000000000000000015
:104BA0000000000000000000000000000000000005
:104BB00000000000000000000000000000000000F5
:104BC00007E00C301818300C300C300C380C38085A
:104BD0001E180F2007C018F030783038601C600CA9
:104BE000600C600C600C3018183007C0000000002A
:104BF00000000000000000000000000000000000B5
:104C000000000000000000000000000000000000A4
:104C10000000000000000000000000000000000094
:104C20000000000000000000000000000000000084
:104C30000000000000000000000000000000000074
:104C400007C01820301030186008600C600C600C31
:104C5000600C600C701C302C186C0F8C000C001851
:104C6000001800103030306030C00F8000000000AD
:104C70000000000000000000000000000000000034
:104C80000000000000000000000000000000000024
:104C90000000000000000000000000000000000014
:104CA0000000000000000000000000000000000004
:104CB00000000000000000000000000000000000F4
:104CC0000000000000000000000000000000018063
:104CD00003C003C0018000000000000000000000CD
:104CE00000000000018003C003C00180000000003C
:104CF00000000000000000000000000000000000B4
:104D000000000000000000000000000000000000A3
:104D10000000000000000000000000000000000093
:104D20000000000000000000000000000000000083
:104D30000000000000000000000000000000000073
:104D40000000000000000000000000000000000063
:104D500003800380038000000000000000000000CA
:104D60000000000000000380038003800180030036
:104D70000300000000000000000000000000000030
:104D80000000000000000000000000000000000023
:104D90000000000000000000000000000000000013
:104DA0000000000000000000000000000000000003
:104DB00000000000000000000000000000000000F3
:104DC00000040008001000200040008001000200E4
:104DD0000400080010001000080004000200010098
:104DE00000800040002000100008000400000000C7
:104DF00000000000000000000000000000000000B3
:104E000000000000000000000000000000000000A2
:104E10000000000000000000000000000000000092
:104E20000000000000000000000000000000000082
:104E30000000000000000000000000000000000072
:104E400000000000000000000000000000007FFEE5
:104E5000000000000000000000007FFE00000000D5
:104E60000000000000000000000000000000000042
:104E70000000000000000000000000000000000032
:104E80000000000000000000000000000000000022
:104E90000000000000000000000000000000000012
:104EA0000000000000000000000000000000000002
:104EB00000000000000000000000000000000000F2
:104EC00020001000080004000200010000800040E3
:104ED00000200010000800080010002000400080A2
:104EE0000100020004000800100020000000000083
:104EF00000000000000000000000000000000000B2
:104F000000000000000000000000000000000000A1
:104F10000000000000000000000000000000000091
:104F20000000000000000000000000000000000081
:104F30000000000000000000000000000000000071
:104F400003E00C18180C1006300638063806380630
:104F5000000C0018007000C00080008000800080FD
:104F600000000000018003C003C0018000000000B9
:104F70000000000000000000000000000000000031
:104F80000000000000000000000000000000000021
:104F90000000000000000000000000000000000011
:104FA0000000000000000000000000000000000001
:104FB00000000000000000000000000000000000F1
:104FC00003E006100C08180430D431B221326332E9
:104FD000632266226622662266626664666426E84A
:104FE000333030021004180C0C1803E000000000ED
:104FF00000000000000000000000000000000000B1
:1050000000000000000000000000000000000000A0
:105010000000000000000000000000000000000090
:105020000000000000000000000000000000000080
:105030000000000000000000000000000000000070
:10504000038003800380038004C004C004C004C044
:105050000C4008600860086008201FF01030103015
:105060001030201820182018601CF83E00000000A6
:105070000000000000000000000000000000000030
:105080000000000000000000000000000000000020
:105090000000000000000000000000000000000010
:1050A0000000000000000000000000000000000000
:1050B00000000000000000000000000000000000F0
:1050C0007FE018381818180C180C180C180C180C4D
:1050D000181818301FE01818180C180418061806AD
:1050E000180618061806180C18187FF000000000A3
:1050F00000000000000000000000000000000000B0
:10510000000000000000000000000000000000009F
:10511000000000000000000000000000000000008F
:10512000000000000000000000000000000000007F
:10513000000000000000000000000000000000006F
:1051400003E0061C080C1806300230023000600034
:10515000600060006000600060006000600060004F
:1051600030023002100418080C1003E000000000A8
:10517000000000000000000000000000000000002F
:10518000000000000000000000000000000000001F
:10519000000000000000000000000000000000000F
:1051A00000000000000000000000000000000000FF
:1051B00000000000000000000000000000000000EF
:1051C0007FC0187018181808180C180C1806180644
:1051D00018061806180618061806180618061804E1
:1051E000180C180C1818181818607FC00000000060
:1051F00000000000000000000000000000000000AF
:10520000000000000000000000000000000000009E
:10521000000000000000000000000000000000008E
:10522000000000000000000000000000000000007E
:10523000000000000000000000000000000000006E
:105240007FFC180C18041802180218001800181017
:10525000181018301FF01830181018101800180007
:105260001800180218021804180C7FFC0000000037
:10527000000000000000000000000000000000002E
:10528000000000000000000000000000000000001E
:10529000000000000000000000000000000000000E
:1052A00000000000000000000000000000000000FE
:1052B00000000000000000000000000000000000EE
:1052C0007FFC181C18041802180218001800181087
:1052D000181018301FF01830181018101810180077
:1052E000180018001800180018007E0000000000C8
:1052F00000000000000000000000000000000000AE
:10530000000000000000000000000000000000009D
:10531000000000000000000000000000000000008D
:10532000000000000000000000000000000000007D
:10533000000000000000000000000000000000006D
:1053400003C00C3008101818300830082000600026
:105350006000600060006000607E601860182018C7
:1053600030183018101818180C2007C00000000062
:10537000000000000000000000000000000000002D
:10538000000000000000000000000000000000001D
:10539000000000000000000000000000000000000D
:1053A00000000000000000000000000000000000FD
:1053B00000000000000000000000000000000000ED
:1053C000FC3F300C300C300C300C300C300C300CFE
:1053D000300C300C3FFC300C300C300C300C300CEE
:1053E000300C300C300C300C300CFC3F0000000056
:1053F00000000000000000000000000000000000AD
:10540000000000000000000000000000000000009C
:10541000000000000000000000000000000000008C
:10542000000000000000000000000000000000007C
:10543000000000000000000000000000000000006C
:105440001FF80180018001800180018001800180BE
:105450000180018001800180018001800180018044
:10546000018001800180018001801FF800000000A0
:10547000000000000000000000000000000000002C
:10548000000000000000000000000000000000001C
:10549000000000000000000000000000000000000C
:1054A00000000000000000000000000000000000FC
:1054B00000000000000000000000000000000000EC
:1054C00007FE006000600060006000600060006037
:1054D00000600060006000600060006000600060CC
:1054E000006000600060006000600060706070C07C
:1054F00071803F000000000000000000000000007C
:10550000000000000000000000000000000000009B
:10551000000000000000000000000000000000008B
:10552000000000000000000000000000000000007B
:10553000000000000000000000000000000000006B
:105540007E7C1830182018601840188018801900C8
:1055500019001B001D801D8018C018C0186018603D
:10556000183018301830181818187E3E0000000047
:10557000000000000000000000000000000000002B
:10558000000000000000000000000000000000001B
:10559000000000000000000000000000000000000B
:1055A00000000000000000000000000000000000FB
:1055B00000000000000000000000000000000000EB
:1055C0007E001800180018001800180018001800B5
:1055D000180018001800180018001800180018000B
:1055E0001800180218021804180C7FFC00000000B4
:1055F00000000000000000000000000000000000AB
:10560000000000000000000000000000000000009A
:10561000000000000000000000000000000000008A
:10562000000000000000000000000000000000007A
:10563000000000000000000000000000000000006A
:10564000F00F381C381C381C381C382C2C2C2C2CF7
:105650002C2C2C4C2C4C264C264C264C268C228C4C
:10566000238C238C230C230C210CF13F0000000021
:10567000000000000000000000000000000000002A
:10568000000000000000000000000000000000001A
:10569000000000000000000000000000000000000A
:1056A00000000000000000000000000000000000FA
:1056B00000000000000000000000000000000000EA
:1056C000F01F380438042C042C0426042604230478
:1056D00023042184218420C420C420642064203435
:1056E0002034201C201C200C200CF804000000009A
:1056F00000000000000000000000000000000000AA
:105700000000000000000000000000000000000099
:105710000000000000000000000000000000000089
:105720000000000000000000000000000000000079
:105730000000000000000000000000000000000069
:1057400003C00C3018181008300C300C60046006D0
:105750006006600660066006600660066006200659
:10576000300C300C100818180C3003C0000000007A
:105770000000000000000000000000000000000029
:105780000000000000000000000000000000000019
:105790000000000000000000000000000000000009
:1057A00000000000000000000000000000000000F9
:1057B00000000000000000000000000000000000E9
:1057C0007FF01818180C1806180618061806180680
:1057D0001806180C18181FE01800180018001800F8
:1057E000180018001800180018007E0000000000C3
:1057F00000000000000000000000000000000000A9
:105800000000000000000000000000000000000098
:105810000000000000000000000000000000000088
:105820000000000000000000000000000000000078
:105830000000000000000000000000000000000068
:1058400003C00C3018181008300C300C60066006CD
:105850006006600660066006600660066006600618
:10586000278438CC386C18780C7003E00032003C88
:10587000001C00000000000000000000000000000C
:105880000000000000000000000000000000000018
:105890000000000000000000000000000000000008
:1058A00000000000000000000000000000000000F8
:1058B00000000000000000000000000000000000E8
:1058C0007FE018381818180C180C180C180C180C45
:1058D000181818301FE018C018C018601860186039
:1058E000183018301830181818187E1E00000000E4
:1058F00000000000000000000000000000000000A8
:105900000000000000000000000000000000000097
:105910000000000000000000000000000000000087
:105920000000000000000000000000000000000077
:105930000000000000000000000000000000000067
:105940000FC8187830186018600860086000700090
:105950003C001F0007C001F000780018001C400C3C
:10596000400C600C200C3018383027E0000000009C
:105970000000000000000000000000000000000027
:105980000000000000000000000000000000000017
:105990000000000000000000000000000000000007
:1059A00000000000000000000000000000000000F7
:1059B00000000000000000000000000000000000E7
:1059C0003FFC318421864182418201800180018037
:1059D00001800180018001800180018001800180BF
:1059E0000180018001800180018007E0000000004B
:1059F00000000000000000000000000000000000A7
:105A00000000000000000000000000000000000096
:105A10000000000000000000000000000000000086
:105A20000000000000000000000000000000000076
:105A30000000000000000000000000000000000066
:105A4000FC3E300830083008300830083008300894
:105A50003008300830083008300830083008300886
:105A600030083008300818101C2007C00000000063
:105A70000000000000000000000000000000000026
:105A80000000000000000000000000000000000016
:105A90000000000000000000000000000000000006
:105AA00000000000000000000000000000000000F6
:105AB00000000000000000000000000000000000E6
:105AC0007C1E180C1808180818080C100C100C1064
:105AD0000C100C2006200620062006400340034040
